:020000040800F2
:1050000060070020C556000801520008035200083E
:10501000055200080752000809520008000000006D
:105020000000000000000000000000000B5200081B
:105030000D520008000000000F5200081152000835
:10504000DF560008DF560008DF560008DF5600086C
:10505000DF560008DF560008DF560008DF5600085C
:10506000DF560008DF560008DF560008DF5600084C
:10507000DF560008DF560008DF560008DF5600083C
:10508000DF560008DF560008DF560008DF5600082C
:10509000DF560008DF560008DF560008DF5600081C
:1050A000DF560008DF560008DF560008DF5600080C
:1050B000DF560008DF560008DF560008DF560008FC
:1050C000DF560008DF560008DF560008DF560008EC
:1050D000DF560008DF56000879550008DF56000843
:1050E000DF560008DF560008DF560008DF560008CC
:1050F000DF560008DF560008DF560008DF560008BC
:10510000DF560008DF560008DF560008DF560008AB
:10511000DF560008DF560008DF560008DF5600089B
:10512000DF560008DF560008DF560008DF5600088B
:1051300000F002F800F03AF80AA090E8000C82446F
:105140008344AAF10107DA4501D100F02FF8AFF24C
:10515000090EBAE80F0013F0010F18BFFB1A43F055
:10516000010318478C100000AC100000103A24BF57
:1051700078C878C1FAD8520724BF30C830C144BFBC
:1051800004680C60704700000023002400250026FE
:10519000103A28BF78C1FBD8520728BF30C148BF9A
:1051A0000B6070471FB51FBD10B510BD00F0DAFFD2
:1051B0001146FFF7F7FF00F009F801F00CF803B40F
:1051C000FFF7F2FF03BC00F02BF9000000F0DCF861
:1051D0004FF4E13000F02EF94FF4FA7403A000F020
:1051E00083FF204600F0FEF8F8E7000041707032BF
:1051F0002072756E696E672E2E2E0D0A000000005B
:105200007047FEE7FEE7FEE7FEE77047704770472E
:10521000704700000CB500220192009252480168CC
:1052200041F4803101604FF4A063016801F4003162
:1052300000910199491C0191009911B90199994274
:10524000F3D10168890302D50121009100E00092A9
:105250000099012930D145490A6842F010020A60DC
:105260000A6822F003020A600A6842F002020A6039
:105270004168416041684160416841F4806141603A
:10528000416821F47C114160416841F4E8114160BA
:10529000016841F08071016001688901FCD54168B5
:1052A00021F003014160416841F002014160416821
:1052B000C1F381010229FAD10CBDABE710B52A4830
:1052C000016841F0010101604168294A11404160D3
:1052D0000168284A11400160016821F480210160C1
:1052E000416821F4FE0141604FF41F018160FFF726
:1052F000E4FF21494FF00060086010BD10B51A4A64
:10530000506800F00C011D4B1D4800290ED00429E7
:105310000ED008290ED003605168194AC1F3031159
:10532000121D515C0268CA40026010BD0360F3E7C1
:105330000360F1E7516801F47011536803F480339E
:10534000022404EB914133B153689B0307D50D4B05
:1053500059430160E0E70B4B59430160DCE7074B21
:1053600059430160D8E700000010024000200240CD
:105370000000FFF8FFFFF6FE08ED00E000127A00E3
:105380000000002000093D0010B56FF0040000F09F
:1053900001FA204820490068B0FBF1F01F49C0B273
:1053A000087000EB4002C2EBC0104FF6FF7202EA39
:1053B000C000488010BD1949097848434FF0E021EA
:1053C000486100238B61086940F0010008610869A9
:1053D000C20701D0C003FAD5086920F001000861B6
:1053E0008B6170470D49498848434FF0E02148617F
:1053F00000238B61086940F0010008610869C20759
:1054000001D0C003FAD5086920F0010008618B6162
:10541000704700000000002000127A0014000020F5
:105420007047A1490A885206FCD59F4AC1B2121D95
:1054300011807047F0B587B00546012144F20400A1
:1054400000F02BFC984E304600F07EFC7015ADF855
:10545000180003248DF81A4018208DF81B00934F74
:1054600006A9384600F013FA3015ADF818000420EC
:105470008DF81B0006A9384600F009FA25208DF8A2
:1054800004008DF805408DF8064001208DF80700D6
:1054900001A800F03CF902950020ADF80C00ADF831
:1054A0000E00ADF81000ADF814000C20ADF812009D
:1054B00002A9304600F090FC012240F2255130460E
:1054C00000F011FD0121304600F001FD07B0F0BDF4
:1054D0002DE9F04186B006460121480400F0E8FBC2
:1054E0000121042000F0D9FB714F384600F02CFC5C
:1054F0000424ADF8144003258DF8165018208DF8BB
:105500001700DFF8A88105A9404600F0C0F908207F
:10551000ADF814008DF8174005A9404600F0B7F922
:1055200026208DF8000002208DF801008DF8025031
:1055300001208DF80300684600F0E9F8019600208C
:10554000ADF80800ADF80A00ADF80C00ADF8100099
:105550000C20ADF80E0001A9384600F03DFC0122F8
:1055600040F22551384600F0BEFC0121384600F0DB
:10557000AEFC06B0BDE8F08170B54D4C40F225514F
:10558000204600F07DFD00280ED0204600F004FDEE
:10559000C1B2484A1088030406D444044FF0000303
:1055A00007D50A2901D0138070BD40F40040108057
:1055B00070BD0D290AD0404DC0F30D042955401C83
:1055C00080B21080C728F3D9138070BD40F48040AA
:1055D000108070BDF0B587B005460121880400F049
:1055E00067FB0121082000F058FB344E304600F0E4
:1055F000ABFB3015ADF8180003248DF81A401820C5
:105600008DF81B002E4F06A9384600F040F9F01423
:10561000ADF8180004208DF81B0006A9384600F0EC
:1056200036F927208DF804008DF805408DF80640E6
:1056300001208DF8070001A800F069F8029500200C
:10564000ADF80C00ADF80E00ADF81000ADF8140088
:105650000C20ADF8120002A9304600F0BDFB01227B
:1056600040F22551304600F03EFC0121304600F06A
:105670002EFC2BE710B5114C0146204600F088FCAB
:105680008021204600F0F1FC0028F9D010BD70B553
:1056900005460E46002403E0285DFFF7EBFF641C7F
:1056A000B442F9D370BD0000003801400008014049
:1056B0000044004018000020340000200048004052
:1056C000000C01400948804709480047FEE7FEE713
:1056D000FEE7FEE7FEE7FEE7FEE7FEE7FEE7FEE7A2
:1056E00004480549054A064B70470000BD520008B2
:1056F0003151000860010020600700206003002095
:10570000600300202A4908432A490860704770B5A1
:105710000F23C27801260178002A1ED0254A12687C
:1057200002F4E062C2F5E062120AC2F10404D3405E
:105730004578A54082781A402A43120101F1E02100
:1057400081F80024007800F01F018E40400980009D
:1057500000F1E020C0F8006170BD01F01F0086403C
:105760004809800000F1E020C0F8806170BD124A55
:10577000114001430F48001F016070470D4A121D80
:10578000002903D0116801431160704711688143FB
:10579000116070474FF0E021042804D0086920F020
:1057A000040008617047086940F004000861704710
:1057B0000000FA050CED00E080FFFF1F10B59C49CA
:1057C000884209D10121042000F07DFA0021BDE8C2
:1057D0001040042000F077BA9649884209D101218F
:1057E000082000F070FA0021BDE81040082000F009
:1057F0006ABA9149884209D10121102000F063FA68
:105800000021BDE81040102000F05DBA8B498842AD
:1058100009D10121202000F056FA0021BDE81040F6
:10582000202000F050BA8649884209D10121402049
:1058300000F049FA0021BDE81040402000F043BAD2
:105840008049884209D10121802000F03CFA0021E2
:10585000BDE81040802000F036BA7B4988420AD16A
:1058600084150121204600F02EFA2046BDE81040A4
:10587000002100F028BA10BD10B50121084600F043
:1058800022FA0021BDE81040012000F01CBA2DE9E9
:10589000F0410022CC7804F00F03E40601D58C78A7
:1058A00023430C784FF00F0714F0FF0F4FF0010C5B
:1058B0001CD005680CFA02F40E882640A64211D1CD
:1058C000960007FA06F825EA080503FA06F848EAFA
:1058D0000505CE78282E02D0482E02D002E0446181
:1058E00000E00461521C082AE4D305600A88FF2AFC
:1058F0001ED94568002202F108060CFA06F40E884B
:105900002640A64210D1960007FA06F825EA0805B7
:1059100003FA06F848EA0505CE78282E00D144613E
:10592000CE78482E00D10461521C082AE3D345608A
:10593000BDE8F0814FF6FF710180022181700421E2
:10594000C17070470246002092680A4200D00120D0
:105950007047806880B2704702460020D2680A42D1
:1059600000D001207047C06880B270470161704765
:1059700041617047002A01D0016170474161704761
:10598000C160704741F480328261816182618169C6
:105990008069704710B52D4B1A684FF6807422400D
:1059A00042EA00100843186010BD2949C8617047D9
:1059B000F0B5264C002801DAE36900E06368C0F323
:1059C0000346420D120185B2C0F301579540032FE3
:1059D00007D0C2020CD50322B240934343F0706259
:1059E00009E023F07062636823F07063636002E093
:1059F000AB4343F0706201B12A43002801DAE2614F
:105A0000F0BD6260F0BD10B58A07120F0F239340FE
:105A100021F003040D4921448C689C438C608B6801
:105A2000904003438B6010BD0949DC31086070472A
:105A300000080140000C014000100140001401402A
:105A400000180140001C01400020014000000140FE
:105A500000002042B448016841F001010160416842
:105A6000B24A114041600168B14A114001600168C9
:105A700021F480210160416821F4FE0141604FF46E
:105A80001F0181607047A8490A6822F480320A60C9
:105A90000A6822F480220A60B0F5803F07D0B0F592
:105AA000802F03D1086840F4A02008607047086880
:105AB00040F48030086070470346002059099A4A34
:105AC00001290AD002290AD0516A03F01F020123DA
:105AD00093400B4200D0012070471168F5E7116A2E
:105AE000F3E718B5002000904FF4A0643120FFF7D1
:105AF000E3FF0099491C00910099A14201D00028C0
:105B0000F4D03120FFF7D8FF08B1012018BD0020E4
:105B100018BD854A116821F0F80141EAC000106003
:105B200070478449086070477F4B5A6822F47C12A2
:105B300008431043586070477E49086670477A4AA8
:105B4000516821F003010143516070477648406875
:105B500000F00C007047744A516821F0F0010143D5
:105B600051607047704A516821F4E061014351600F
:105B700070476D4A516821F4605141EAC00050609D
:105B80007047694A002903D0517A01435172704726
:105B9000517A8143517270476649D8310860704725
:105BA000614A516821F440410143516070475E49A8
:105BB000002220310A7001F82029012805D004288C
:105BC00002D1052081F820007047012081F82000D3
:105BD000704759490860704753490A6A02430A628C
:105BE0007047554944390860704710B54E4A5168AE
:105BF00001F00C01514B002927D0042927D0082996
:105C000027D00360516801F0F00109094C4B5C5C3E
:105C10000168E1404160546804F4E064240A1C5DBA
:105C200021FA04F48460546804F46054E40A1B5DAF
:105C3000D940C160526802F44042920B404B1B1F96
:105C40009A5CB1FBF2F1016110BD0360DAE7036019
:105C5000D8E7516801F47011536803F480330224CB
:105C600004EB914133B153689B0307D5354B59433E
:105C70000160C7E7334B59430160C3E72F4B5943DA
:105C80000160BFE7284A002903D0516901435161EF
:105C900070475169814351617047234A002903D0FD
:105CA00091690143916170479169814391617047A6
:105CB0001D4A002903D0D1690143D1617047D169E0
:105CC0008143D1617047184A002903D0D16801434C
:105CD000D1607047D1688143D1607047124A002972
:105CE00003D011690143116170471169814311614A
:105CF000704711494039086070470E49C8647047C1
:105D00000949C87170470848416A41F08071416291
:105D1000704701460020044A92680A4200D00120E0
:105D20007047014988727047001002400000FFF878
:105D3000FFFFF6FE000042428004424200127A0059
:105D40002400002000093D0010B5E14988420AD135
:105D500001218C032046FFF7B6FF2046BDE8104026
:105D60000021FFF7B0BFDB4988420AD101214C0472
:105D70002046FFF7B3FF2046BDE810400021FFF7A3
:105D8000ADBFD54988420AD101218C042046FFF7D6
:105D9000A5FF2046BDE810400021FFF79FBFCF4977
:105DA00088420AD10121CC042046FFF797FF204604
:105DB000BDE810400021FFF791BFC94988420AD1D0
:105DC00001210C052046FFF789FF2046BDE8104061
:105DD0000021FFF783BF10BD30B585B004460D46E6
:105DE000208A4CF6FF710840E98801432182A0898E
:105DF0004EF6F3110840A9882A8911436A890243A3
:105E00001143A181A08A4FF6FF410840A9890143AF
:105E1000A1826846FFF7E9FEAD48844201D10398AC
:105E200000E00298A189090408D500EBC00101EB4C
:105E3000001029684900B0FBF1F007E000EBC00159
:105E400001EB001029688900B0FBF1F06422B0FB7F
:105E5000F2F109010B096FF018056B4300EB8300A9
:105E6000A3891D044FF0320307D503EBC000B0FB3C
:105E7000F2F000F00700084306E003EB0010B0FB6F
:105E8000F2F000F00F000843208105B030BD4FF460
:105E90001651016000218180C18001810C22428164
:105EA0008181704710B5038A4FF2FF0213400A88C0
:105EB0004C8822438C88C9880C4322431A430282AF
:105EC00010BD0021018041808180C1807047002980
:105ED00004D0818941F4005181817047818921F486
:105EE00000518181704710B540F66A13C1F3421327
:105EF00001F01F040121A140012B07D0022B07D084
:105F000014303AB102680A43026010BD0C30F8E761
:105F10001030F6E702688A43026010BD002A03D001
:105F2000828A0A4382827047828A8A4382827047C9
:105F3000028A22F00F020282028A0A43028270471A
:105F4000828922F40062828182890A4382817047B9
:105F5000002904D0818941F0020181817047818943
:105F600021F0020181817047028A22F02002028220
:105F7000028A0A4302827047002904D0018A41F450
:105F8000804101827047018A21F48041018270477B
:105F9000C1F30801818070478088C0F30800704712
:105FA000818941F0010181817047028BD2B2028365
:105FB000028B42EA012101837047028B02F47F4287
:105FC0000283028B0A4302837047002904D0818A2E
:105FD00041F0200181827047818A21F02001818275
:105FE0007047002904D0818A41F0100181827047F6
:105FF000818A21F0100181827047002904D0818AB2
:1060000041F0080181827047818A21F00801818274
:106010007047002904D0818941F400418181704793
:106020008189C1F30E0181817047002904D0818AE2
:1060300041F4006181827047818A21F4006181828C
:106040007047828A22F004028282828A0A43828214
:106050007047002904D0818A41F002018182704793
:10606000818A21F002018182704702460020128855
:106070000A4200D0012070478A05C9430180704759
:1060800070B5002440F66A12C1F3421301F01F05F7
:10609000012606FA05F2012B0CD0022B0DD0838AC3
:1060A0001340090A8E40008830400BB100B1012432
:1060B000204670BD83891340F3E7038A1340F0E75D
:1060C00040F66A120A0A01219140C94301807047D3
:1060D000003801400044004000480040004C0040AF
:1060E00000500040704700000FB4044910B503AAE7
:1060F000029800F009F810BC5DF814FB1C000020A9
:106100007047704770477047074B70B50D467B442A
:1061100000F011F80446284600F020F810B14FF0C6
:10612000FF3070BD204670BD11F3FFFF01694A1CAE
:1061300002610878704700B58FB0CDE901310021C8
:10614000059105497944CDE903101146684600F0F0
:106150002EF80FB000BD0000E5FFFFFF007B00F050
:1061600080007047754600F03FF8AE46050069466E
:10617000534620F00700854618B020B5FFF7B0FA67
:10618000BDE820404FF000064FF000074FF0000838
:106190004FF0000B21F00701AC46ACE8C009ACE8B9
:1061A000C009ACE8C009ACE8C0098D4670472DE9CC
:1061B000F04106460024D6E90170F5688046304675
:1061C00003E04146B847641C3046A8470028F8D190
:1061D0002046BDE8F08110B50446AFF300802046AC
:1061E000BDE81040FEF7EBBF00487047FC00002000
:1061F0001062000800000020340000006C5100080C
:1062000044620008340000202C0700008851000878
:1062100000A24A0400000000000000000102030484
:106220000607080900000000000000000000000050
:106230000204060800000000010203040102030436
:04624000060708093C
:04000005080051316D
:00000001FF
